{
  "contractName": "TestNFT",
  "abi": [
    {
      "inputs": [],
      "stateMutability": "nonpayable",
      "type": "constructor"
    },
    {
      "anonymous": false,
      "inputs": [
        {
          "indexed": true,
          "internalType": "address",
          "name": "owner",
          "type": "address"
        },
        {
          "indexed": true,
          "internalType": "address",
          "name": "approved",
          "type": "address"
        },
        {
          "indexed": true,
          "internalType": "uint256",
          "name": "tokenId",
          "type": "uint256"
        }
      ],
      "name": "Approval",
      "type": "event"
    },
    {
      "anonymous": false,
      "inputs": [
        {
          "indexed": true,
          "internalType": "address",
          "name": "owner",
          "type": "address"
        },
        {
          "indexed": true,
          "internalType": "address",
          "name": "operator",
          "type": "address"
        },
        {
          "indexed": false,
          "internalType": "bool",
          "name": "approved",
          "type": "bool"
        }
      ],
      "name": "ApprovalForAll",
      "type": "event"
    },
    {
      "anonymous": false,
      "inputs": [
        {
          "indexed": true,
          "internalType": "address",
          "name": "from",
          "type": "address"
        },
        {
          "indexed": true,
          "internalType": "address",
          "name": "to",
          "type": "address"
        },
        {
          "indexed": true,
          "internalType": "uint256",
          "name": "tokenId",
          "type": "uint256"
        }
      ],
      "name": "Transfer",
      "type": "event"
    },
    {
      "inputs": [
        {
          "internalType": "address",
          "name": "to",
          "type": "address"
        },
        {
          "internalType": "uint256",
          "name": "tokenId",
          "type": "uint256"
        }
      ],
      "name": "approve",
      "outputs": [],
      "stateMutability": "nonpayable",
      "type": "function"
    },
    {
      "inputs": [
        {
          "internalType": "address",
          "name": "owner",
          "type": "address"
        }
      ],
      "name": "balanceOf",
      "outputs": [
        {
          "internalType": "uint256",
          "name": "",
          "type": "uint256"
        }
      ],
      "stateMutability": "view",
      "type": "function"
    },
    {
      "inputs": [
        {
          "internalType": "uint256",
          "name": "tokenId",
          "type": "uint256"
        }
      ],
      "name": "getApproved",
      "outputs": [
        {
          "internalType": "address",
          "name": "",
          "type": "address"
        }
      ],
      "stateMutability": "view",
      "type": "function"
    },
    {
      "inputs": [
        {
          "internalType": "address",
          "name": "owner",
          "type": "address"
        },
        {
          "internalType": "address",
          "name": "operator",
          "type": "address"
        }
      ],
      "name": "isApprovedForAll",
      "outputs": [
        {
          "internalType": "bool",
          "name": "",
          "type": "bool"
        }
      ],
      "stateMutability": "view",
      "type": "function"
    },
    {
      "inputs": [],
      "name": "name",
      "outputs": [
        {
          "internalType": "string",
          "name": "",
          "type": "string"
        }
      ],
      "stateMutability": "view",
      "type": "function"
    },
    {
      "inputs": [
        {
          "internalType": "uint256",
          "name": "tokenId",
          "type": "uint256"
        }
      ],
      "name": "ownerOf",
      "outputs": [
        {
          "internalType": "address",
          "name": "",
          "type": "address"
        }
      ],
      "stateMutability": "view",
      "type": "function"
    },
    {
      "inputs": [
        {
          "internalType": "address",
          "name": "from",
          "type": "address"
        },
        {
          "internalType": "address",
          "name": "to",
          "type": "address"
        },
        {
          "internalType": "uint256",
          "name": "tokenId",
          "type": "uint256"
        }
      ],
      "name": "safeTransferFrom",
      "outputs": [],
      "stateMutability": "nonpayable",
      "type": "function"
    },
    {
      "inputs": [
        {
          "internalType": "address",
          "name": "from",
          "type": "address"
        },
        {
          "internalType": "address",
          "name": "to",
          "type": "address"
        },
        {
          "internalType": "uint256",
          "name": "tokenId",
          "type": "uint256"
        },
        {
          "internalType": "bytes",
          "name": "data",
          "type": "bytes"
        }
      ],
      "name": "safeTransferFrom",
      "outputs": [],
      "stateMutability": "nonpayable",
      "type": "function"
    },
    {
      "inputs": [
        {
          "internalType": "address",
          "name": "operator",
          "type": "address"
        },
        {
          "internalType": "bool",
          "name": "approved",
          "type": "bool"
        }
      ],
      "name": "setApprovalForAll",
      "outputs": [],
      "stateMutability": "nonpayable",
      "type": "function"
    },
    {
      "inputs": [],
      "name": "symbol",
      "outputs": [
        {
          "internalType": "string",
          "name": "",
          "type": "string"
        }
      ],
      "stateMutability": "view",
      "type": "function"
    },
    {
      "inputs": [
        {
          "internalType": "uint256",
          "name": "index",
          "type": "uint256"
        }
      ],
      "name": "tokenByIndex",
      "outputs": [
        {
          "internalType": "uint256",
          "name": "",
          "type": "uint256"
        }
      ],
      "stateMutability": "view",
      "type": "function"
    },
    {
      "inputs": [
        {
          "internalType": "address",
          "name": "owner",
          "type": "address"
        },
        {
          "internalType": "uint256",
          "name": "index",
          "type": "uint256"
        }
      ],
      "name": "tokenOfOwnerByIndex",
      "outputs": [
        {
          "internalType": "uint256",
          "name": "",
          "type": "uint256"
        }
      ],
      "stateMutability": "view",
      "type": "function"
    },
    {
      "inputs": [],
      "name": "totalSupply",
      "outputs": [
        {
          "internalType": "uint256",
          "name": "",
          "type": "uint256"
        }
      ],
      "stateMutability": "view",
      "type": "function"
    },
    {
      "inputs": [
        {
          "internalType": "address",
          "name": "from",
          "type": "address"
        },
        {
          "internalType": "address",
          "name": "to",
          "type": "address"
        },
        {
          "internalType": "uint256",
          "name": "tokenId",
          "type": "uint256"
        }
      ],
      "name": "transferFrom",
      "outputs": [],
      "stateMutability": "nonpayable",
      "type": "function"
    },
    {
      "inputs": [
        {
          "internalType": "address",
          "name": "_recipient",
          "type": "address"
        },
        {
          "internalType": "string",
          "name": "_tokenUrl",
          "type": "string"
        }
      ],
      "name": "mint",
      "outputs": [
        {
          "internalType": "uint256",
          "name": "_mintTokenId",
          "type": "uint256"
        }
      ],
      "stateMutability": "nonpayable",
      "type": "function"
    },
    {
      "inputs": [
        {
          "internalType": "uint256",
          "name": "tokenId",
          "type": "uint256"
        }
      ],
      "name": "tokenURI",
      "outputs": [
        {
          "internalType": "string",
          "name": "",
          "type": "string"
        }
      ],
      "stateMutability": "view",
      "type": "function"
    },
    {
      "inputs": [
        {
          "internalType": "bytes4",
          "name": "interfaceId",
          "type": "bytes4"
        }
      ],
      "name": "supportsInterface",
      "outputs": [
        {
          "internalType": "bool",
          "name": "",
          "type": "bool"
        }
      ],
      "stateMutability": "view",
      "type": "function"
    }
  ],
  "bytecode": "0x60806040523480156200001157600080fd5b506040518060400160405280600d81526020017f546865204669727374204e4654000000000000000000000000000000000000008152506040518060400160405280600381526020017f464654000000000000000000000000000000000000000000000000000000000081525081600090816200008f919062000324565b508060019081620000a1919062000324565b5050506200040b565b600081519050919050565b7f4e487b7100000000000000000000000000000000000000000000000000000000600052604160045260246000fd5b7f4e487b7100000000000000000000000000000000000000000000000000000000600052602260045260246000fd5b600060028204905060018216806200012c57607f821691505b602082108103620001425762000141620000e4565b5b50919050565b60008190508160005260206000209050919050565b60006020601f8301049050919050565b600082821b905092915050565b600060088302620001ac7fffffffffffffffffffffffffffffffffffffffffffffffffffffffffffffffff826200016d565b620001b886836200016d565b95508019841693508086168417925050509392505050565b6000819050919050565b6000819050919050565b600062000205620001ff620001f984620001d0565b620001da565b620001d0565b9050919050565b6000819050919050565b6200022183620001e4565b6200023962000230826200020c565b8484546200017a565b825550505050565b600090565b6200025062000241565b6200025d81848462000216565b505050565b5b8181101562000285576200027960008262000246565b60018101905062000263565b5050565b601f821115620002d4576200029e8162000148565b620002a9846200015d565b81016020851015620002b9578190505b620002d1620002c8856200015d565b83018262000262565b50505b505050565b600082821c905092915050565b6000620002f960001984600802620002d9565b1980831691505092915050565b6000620003148383620002e6565b9150826002028217905092915050565b6200032f82620000aa565b67ffffffffffffffff8111156200034b576200034a620000b5565b5b62000357825462000113565b6200036482828562000289565b600060209050601f8311600181146200039c576000841562000387578287015190505b62000393858262000306565b86555062000403565b601f198416620003ac8662000148565b60005b82811015620003d657848901518255600182019150602085019450602081019050620003af565b86831015620003f65784890151620003f2601f891682620002e6565b8355505b6001600288020188555050505b505050505050565b6132ec806200041b6000396000f3fe608060405234801561001057600080fd5b506004361061010b5760003560e01c80634f6ccce7116100a2578063a22cb46511610071578063a22cb465146102de578063b88d4fde146102fa578063c87b56dd14610316578063d0def52114610346578063e985e9c5146103765761010b565b80634f6ccce7146102305780636352211e1461026057806370a082311461029057806395d89b41146102c05761010b565b806318160ddd116100de57806318160ddd146101aa57806323b872dd146101c85780632f745c59146101e457806342842e0e146102145761010b565b806301ffc9a71461011057806306fdde0314610140578063081812fc1461015e578063095ea7b31461018e575b600080fd5b61012a60048036038101906101259190611e81565b6103a6565b6040516101379190611ec9565b60405180910390f35b6101486103b8565b6040516101559190611f7d565b60405180910390f35b61017860048036038101906101739190611fd5565b61044a565b6040516101859190612043565b60405180910390f35b6101a860048036038101906101a3919061208a565b610490565b005b6101b26105a7565b6040516101bf91906120d9565b60405180910390f35b6101e260048036038101906101dd91906120f4565b6105b4565b005b6101fe60048036038101906101f9919061208a565b610614565b60405161020b91906120d9565b60405180910390f35b61022e600480360381019061022991906120f4565b6106b9565b005b61024a60048036038101906102459190611fd5565b6106d9565b60405161025791906120d9565b60405180910390f35b61027a60048036038101906102759190611fd5565b61074a565b6040516102879190612043565b60405180910390f35b6102aa60048036038101906102a59190612147565b6107fb565b6040516102b791906120d9565b60405180910390f35b6102c86108b2565b6040516102d59190611f7d565b60405180910390f35b6102f860048036038101906102f391906121a0565b610944565b005b610314600480360381019061030f9190612315565b61095a565b005b610330600480360381019061032b9190611fd5565b6109bc565b60405161033d9190611f7d565b60405180910390f35b610360600480360381019061035b9190612439565b6109ce565b60405161036d91906120d9565b60405180910390f35b610390600480360381019061038b9190612495565b610a49565b60405161039d9190611ec9565b60405180910390f35b60006103b182610add565b9050919050565b6060600080546103c790612504565b80601f01602080910402602001604051908101604052809291908181526020018280546103f390612504565b80156104405780601f1061041557610100808354040283529160200191610440565b820191906000526020600020905b81548152906001019060200180831161042357829003601f168201915b5050505050905090565b600061045582610b57565b6004600083815260200190815260200160002060009054906101000a900473ffffffffffffffffffffffffffffffffffffffff169050919050565b600061049b8261074a565b90508073ffffffffffffffffffffffffffffffffffffffff168373ffffffffffffffffffffffffffffffffffffffff160361050b576040517f08c379a0000000000000000000000000000000000000000000000000000000008152600401610502906125a7565b60405180910390fd5b8073ffffffffffffffffffffffffffffffffffffffff1661052a610ba2565b73ffffffffffffffffffffffffffffffffffffffff161480610559575061055881610553610ba2565b610a49565b5b610598576040517f08c379a000000000000000000000000000000000000000000000000000000000815260040161058f90612639565b60405180910390fd5b6105a28383610baa565b505050565b6000600880549050905090565b6105c56105bf610ba2565b82610c63565b610604576040517f08c379a00000000000000000000000000000000000000000000000000000000081526004016105fb906126cb565b60405180910390fd5b61060f838383610cf8565b505050565b600061061f836107fb565b8210610660576040517f08c379a00000000000000000000000000000000000000000000000000000000081526004016106579061275d565b60405180910390fd5b600660008473ffffffffffffffffffffffffffffffffffffffff1673ffffffffffffffffffffffffffffffffffffffff168152602001908152602001600020600083815260200190815260200160002054905092915050565b6106d48383836040518060200160405280600081525061095a565b505050565b60006106e36105a7565b8210610724576040517f08c379a000000000000000000000000000000000000000000000000000000000815260040161071b906127ef565b60405180910390fd5b600882815481106107385761073761280f565b5b90600052602060002001549050919050565b6000806002600084815260200190815260200160002060009054906101000a900473ffffffffffffffffffffffffffffffffffffffff169050600073ffffffffffffffffffffffffffffffffffffffff168173ffffffffffffffffffffffffffffffffffffffff16036107f2576040517f08c379a00000000000000000000000000000000000000000000000000000000081526004016107e99061288a565b60405180910390fd5b80915050919050565b60008073ffffffffffffffffffffffffffffffffffffffff168273ffffffffffffffffffffffffffffffffffffffff160361086b576040517f08c379a00000000000000000000000000000000000000000000000000000000081526004016108629061291c565b60405180910390fd5b600360008373ffffffffffffffffffffffffffffffffffffffff1673ffffffffffffffffffffffffffffffffffffffff168152602001908152602001600020549050919050565b6060600180546108c190612504565b80601f01602080910402602001604051908101604052809291908181526020018280546108ed90612504565b801561093a5780601f1061090f5761010080835404028352916020019161093a565b820191906000526020600020905b81548152906001019060200180831161091d57829003601f168201915b5050505050905090565b61095661094f610ba2565b8383610f5e565b5050565b61096b610965610ba2565b83610c63565b6109aa576040517f08c379a00000000000000000000000000000000000000000000000000000000081526004016109a1906126cb565b60405180910390fd5b6109b6848484846110ca565b50505050565b60606109c782611126565b9050919050565b600080825111610a13576040517f08c379a0000000000000000000000000000000000000000000000000000000008152600401610a0a90612988565b60405180910390fd5b610a1d600b611238565b6000610a29600b61124e565b9050610a35848261125c565b610a3f8184611435565b8091505092915050565b6000600560008473ffffffffffffffffffffffffffffffffffffffff1673ffffffffffffffffffffffffffffffffffffffff16815260200190815260200160002060008373ffffffffffffffffffffffffffffffffffffffff1673ffffffffffffffffffffffffffffffffffffffff16815260200190815260200160002060009054906101000a900460ff16905092915050565b60007f780e9d63000000000000000000000000000000000000000000000000000000007bffffffffffffffffffffffffffffffffffffffffffffffffffffffff1916827bffffffffffffffffffffffffffffffffffffffffffffffffffffffff19161480610b505750610b4f826114a2565b5b9050919050565b610b6081611584565b610b9f576040517f08c379a0000000000000000000000000000000000000000000000000000000008152600401610b969061288a565b60405180910390fd5b50565b600033905090565b816004600083815260200190815260200160002060006101000a81548173ffffffffffffffffffffffffffffffffffffffff021916908373ffffffffffffffffffffffffffffffffffffffff160217905550808273ffffffffffffffffffffffffffffffffffffffff16610c1d8361074a565b73ffffffffffffffffffffffffffffffffffffffff167f8c5be1e5ebec7d5bd14f71427d1e84f3dd0314c0f7b2291e5b200ac8c7c3b92560405160405180910390a45050565b600080610c6f8361074a565b90508073ffffffffffffffffffffffffffffffffffffffff168473ffffffffffffffffffffffffffffffffffffffff161480610cb15750610cb08185610a49565b5b80610cef57508373ffffffffffffffffffffffffffffffffffffffff16610cd78461044a565b73ffffffffffffffffffffffffffffffffffffffff16145b91505092915050565b8273ffffffffffffffffffffffffffffffffffffffff16610d188261074a565b73ffffffffffffffffffffffffffffffffffffffff1614610d6e576040517f08c379a0000000000000000000000000000000000000000000000000000000008152600401610d6590612a1a565b60405180910390fd5b600073ffffffffffffffffffffffffffffffffffffffff168273ffffffffffffffffffffffffffffffffffffffff1603610ddd576040517f08c379a0000000000000000000000000000000000000000000000000000000008152600401610dd490612aac565b60405180910390fd5b610de88383836115f0565b610df3600082610baa565b6001600360008573ffffffffffffffffffffffffffffffffffffffff1673ffffffffffffffffffffffffffffffffffffffff1681526020019081526020016000206000828254610e439190612afb565b925050819055506001600360008473ffffffffffffffffffffffffffffffffffffffff1673ffffffffffffffffffffffffffffffffffffffff1681526020019081526020016000206000828254610e9a9190612b2f565b92505081905550816002600083815260200190815260200160002060006101000a81548173ffffffffffffffffffffffffffffffffffffffff021916908373ffffffffffffffffffffffffffffffffffffffff160217905550808273ffffffffffffffffffffffffffffffffffffffff168473ffffffffffffffffffffffffffffffffffffffff167fddf252ad1be2c89b69c2b068fc378daa952ba7f163c4a11628f55a4df523b3ef60405160405180910390a4610f59838383611600565b505050565b8173ffffffffffffffffffffffffffffffffffffffff168373ffffffffffffffffffffffffffffffffffffffff1603610fcc576040517f08c379a0000000000000000000000000000000000000000000000000000000008152600401610fc390612bd1565b60405180910390fd5b80600560008573ffffffffffffffffffffffffffffffffffffffff1673ffffffffffffffffffffffffffffffffffffffff16815260200190815260200160002060008473ffffffffffffffffffffffffffffffffffffffff1673ffffffffffffffffffffffffffffffffffffffff16815260200190815260200160002060006101000a81548160ff0219169083151502179055508173ffffffffffffffffffffffffffffffffffffffff168373ffffffffffffffffffffffffffffffffffffffff167f17307eab39ab6107e8899845ad3d59bd9653f200f220920489ca2b5937696c31836040516110bd9190611ec9565b60405180910390a3505050565b6110d5848484610cf8565b6110e184848484611605565b611120576040517f08c379a000000000000000000000000000000000000000000000000000000000815260040161111790612c63565b60405180910390fd5b50505050565b606061113182610b57565b6000600a6000848152602001908152602001600020805461115190612504565b80601f016020809104026020016040519081016040528092919081815260200182805461117d90612504565b80156111ca5780601f1061119f576101008083540402835291602001916111ca565b820191906000526020600020905b8154815290600101906020018083116111ad57829003601f168201915b5050505050905060006111db61178c565b905060008151036111f0578192505050611233565b60008251111561122557808260405160200161120d929190612cbf565b60405160208183030381529060405292505050611233565b61122e846117a3565b925050505b919050565b6001816000016000828254019250508190555050565b600081600001549050919050565b600073ffffffffffffffffffffffffffffffffffffffff168273ffffffffffffffffffffffffffffffffffffffff16036112cb576040517f08c379a00000000000000000000000000000000000000000000000000000000081526004016112c290612d2f565b60405180910390fd5b6112d481611584565b15611314576040517f08c379a000000000000000000000000000000000000000000000000000000000815260040161130b90612d9b565b60405180910390fd5b611320600083836115f0565b6001600360008473ffffffffffffffffffffffffffffffffffffffff1673ffffffffffffffffffffffffffffffffffffffff16815260200190815260200160002060008282546113709190612b2f565b92505081905550816002600083815260200190815260200160002060006101000a81548173ffffffffffffffffffffffffffffffffffffffff021916908373ffffffffffffffffffffffffffffffffffffffff160217905550808273ffffffffffffffffffffffffffffffffffffffff16600073ffffffffffffffffffffffffffffffffffffffff167fddf252ad1be2c89b69c2b068fc378daa952ba7f163c4a11628f55a4df523b3ef60405160405180910390a461143160008383611600565b5050565b61143e82611584565b61147d576040517f08c379a000000000000000000000000000000000000000000000000000000000815260040161147490612e2d565b60405180910390fd5b80600a6000848152602001908152602001600020908161149d9190612ff9565b505050565b60007f80ac58cd000000000000000000000000000000000000000000000000000000007bffffffffffffffffffffffffffffffffffffffffffffffffffffffff1916827bffffffffffffffffffffffffffffffffffffffffffffffffffffffff1916148061156d57507f5b5e139f000000000000000000000000000000000000000000000000000000007bffffffffffffffffffffffffffffffffffffffffffffffffffffffff1916827bffffffffffffffffffffffffffffffffffffffffffffffffffffffff1916145b8061157d575061157c8261180b565b5b9050919050565b60008073ffffffffffffffffffffffffffffffffffffffff166002600084815260200190815260200160002060009054906101000a900473ffffffffffffffffffffffffffffffffffffffff1673ffffffffffffffffffffffffffffffffffffffff1614159050919050565b6115fb838383611875565b505050565b505050565b60006116268473ffffffffffffffffffffffffffffffffffffffff16611987565b1561177f578373ffffffffffffffffffffffffffffffffffffffff1663150b7a0261164f610ba2565b8786866040518563ffffffff1660e01b81526004016116719493929190613120565b6020604051808303816000875af19250505080156116ad57506040513d601f19601f820116820180604052508101906116aa9190613181565b60015b61172f573d80600081146116dd576040519150601f19603f3d011682016040523d82523d6000602084013e6116e2565b606091505b506000815103611727576040517f08c379a000000000000000000000000000000000000000000000000000000000815260040161171e90612c63565b60405180910390fd5b805181602001fd5b63150b7a0260e01b7bffffffffffffffffffffffffffffffffffffffffffffffffffffffff1916817bffffffffffffffffffffffffffffffffffffffffffffffffffffffff191614915050611784565b600190505b949350505050565b606060405180602001604052806000815250905090565b60606117ae82610b57565b60006117b861178c565b905060008151116117d85760405180602001604052806000815250611803565b806117e2846119aa565b6040516020016117f3929190612cbf565b6040516020818303038152906040525b915050919050565b60007f01ffc9a7000000000000000000000000000000000000000000000000000000007bffffffffffffffffffffffffffffffffffffffffffffffffffffffff1916827bffffffffffffffffffffffffffffffffffffffffffffffffffffffff1916149050919050565b611880838383611b0a565b600073ffffffffffffffffffffffffffffffffffffffff168373ffffffffffffffffffffffffffffffffffffffff16036118c2576118bd81611b0f565b611901565b8173ffffffffffffffffffffffffffffffffffffffff168373ffffffffffffffffffffffffffffffffffffffff1614611900576118ff8382611b58565b5b5b600073ffffffffffffffffffffffffffffffffffffffff168273ffffffffffffffffffffffffffffffffffffffff16036119435761193e81611cc5565b611982565b8273ffffffffffffffffffffffffffffffffffffffff168273ffffffffffffffffffffffffffffffffffffffff1614611981576119808282611d96565b5b5b505050565b6000808273ffffffffffffffffffffffffffffffffffffffff163b119050919050565b6060600082036119f1576040518060400160405280600181526020017f30000000000000000000000000000000000000000000000000000000000000008152509050611b05565b600082905060005b60008214611a23578080611a0c906131ae565b915050600a82611a1c9190613225565b91506119f9565b60008167ffffffffffffffff811115611a3f57611a3e6121ea565b5b6040519080825280601f01601f191660200182016040528015611a715781602001600182028036833780820191505090505b5090505b60008514611afe57600182611a8a9190612afb565b9150600a85611a999190613256565b6030611aa59190612b2f565b60f81b818381518110611abb57611aba61280f565b5b60200101907effffffffffffffffffffffffffffffffffffffffffffffffffffffffffffff1916908160001a905350600a85611af79190613225565b9450611a75565b8093505050505b919050565b505050565b6008805490506009600083815260200190815260200160002081905550600881908060018154018082558091505060019003906000526020600020016000909190919091505550565b60006001611b65846107fb565b611b6f9190612afb565b9050600060076000848152602001908152602001600020549050818114611c54576000600660008673ffffffffffffffffffffffffffffffffffffffff1673ffffffffffffffffffffffffffffffffffffffff168152602001908152602001600020600084815260200190815260200160002054905080600660008773ffffffffffffffffffffffffffffffffffffffff1673ffffffffffffffffffffffffffffffffffffffff168152602001908152602001600020600084815260200190815260200160002081905550816007600083815260200190815260200160002081905550505b6007600084815260200190815260200160002060009055600660008573ffffffffffffffffffffffffffffffffffffffff1673ffffffffffffffffffffffffffffffffffffffff16815260200190815260200160002060008381526020019081526020016000206000905550505050565b60006001600880549050611cd99190612afb565b9050600060096000848152602001908152602001600020549050600060088381548110611d0957611d0861280f565b5b906000526020600020015490508060088381548110611d2b57611d2a61280f565b5b906000526020600020018190555081600960008381526020019081526020016000208190555060096000858152602001908152602001600020600090556008805480611d7a57611d79613287565b5b6001900381819060005260206000200160009055905550505050565b6000611da1836107fb565b905081600660008573ffffffffffffffffffffffffffffffffffffffff1673ffffffffffffffffffffffffffffffffffffffff168152602001908152602001600020600083815260200190815260200160002081905550806007600084815260200190815260200160002081905550505050565b6000604051905090565b600080fd5b600080fd5b60007fffffffff0000000000000000000000000000000000000000000000000000000082169050919050565b611e5e81611e29565b8114611e6957600080fd5b50565b600081359050611e7b81611e55565b92915050565b600060208284031215611e9757611e96611e1f565b5b6000611ea584828501611e6c565b91505092915050565b60008115159050919050565b611ec381611eae565b82525050565b6000602082019050611ede6000830184611eba565b92915050565b600081519050919050565b600082825260208201905092915050565b60005b83811015611f1e578082015181840152602081019050611f03565b83811115611f2d576000848401525b50505050565b6000601f19601f8301169050919050565b6000611f4f82611ee4565b611f598185611eef565b9350611f69818560208601611f00565b611f7281611f33565b840191505092915050565b60006020820190508181036000830152611f978184611f44565b905092915050565b6000819050919050565b611fb281611f9f565b8114611fbd57600080fd5b50565b600081359050611fcf81611fa9565b92915050565b600060208284031215611feb57611fea611e1f565b5b6000611ff984828501611fc0565b91505092915050565b600073ffffffffffffffffffffffffffffffffffffffff82169050919050565b600061202d82612002565b9050919050565b61203d81612022565b82525050565b60006020820190506120586000830184612034565b92915050565b61206781612022565b811461207257600080fd5b50565b6000813590506120848161205e565b92915050565b600080604083850312156120a1576120a0611e1f565b5b60006120af85828601612075565b92505060206120c085828601611fc0565b9150509250929050565b6120d381611f9f565b82525050565b60006020820190506120ee60008301846120ca565b92915050565b60008060006060848603121561210d5761210c611e1f565b5b600061211b86828701612075565b935050602061212c86828701612075565b925050604061213d86828701611fc0565b9150509250925092565b60006020828403121561215d5761215c611e1f565b5b600061216b84828501612075565b91505092915050565b61217d81611eae565b811461218857600080fd5b50565b60008135905061219a81612174565b92915050565b600080604083850312156121b7576121b6611e1f565b5b60006121c585828601612075565b92505060206121d68582860161218b565b9150509250929050565b600080fd5b600080fd5b7f4e487b7100000000000000000000000000000000000000000000000000000000600052604160045260246000fd5b61222282611f33565b810181811067ffffffffffffffff82111715612241576122406121ea565b5b80604052505050565b6000612254611e15565b90506122608282612219565b919050565b600067ffffffffffffffff8211156122805761227f6121ea565b5b61228982611f33565b9050602081019050919050565b82818337600083830152505050565b60006122b86122b384612265565b61224a565b9050828152602081018484840111156122d4576122d36121e5565b5b6122df848285612296565b509392505050565b600082601f8301126122fc576122fb6121e0565b5b813561230c8482602086016122a5565b91505092915050565b6000806000806080858703121561232f5761232e611e1f565b5b600061233d87828801612075565b945050602061234e87828801612075565b935050604061235f87828801611fc0565b925050606085013567ffffffffffffffff8111156123805761237f611e24565b5b61238c878288016122e7565b91505092959194509250565b600067ffffffffffffffff8211156123b3576123b26121ea565b5b6123bc82611f33565b9050602081019050919050565b60006123dc6123d784612398565b61224a565b9050828152602081018484840111156123f8576123f76121e5565b5b612403848285612296565b509392505050565b600082601f8301126124205761241f6121e0565b5b81356124308482602086016123c9565b91505092915050565b600080604083850312156124505761244f611e1f565b5b600061245e85828601612075565b925050602083013567ffffffffffffffff81111561247f5761247e611e24565b5b61248b8582860161240b565b9150509250929050565b600080604083850312156124ac576124ab611e1f565b5b60006124ba85828601612075565b92505060206124cb85828601612075565b9150509250929050565b7f4e487b7100000000000000000000000000000000000000000000000000000000600052602260045260246000fd5b6000600282049050600182168061251c57607f821691505b60208210810361252f5761252e6124d5565b5b50919050565b7f4552433732313a20617070726f76616c20746f2063757272656e74206f776e6560008201527f7200000000000000000000000000000000000000000000000000000000000000602082015250565b6000612591602183611eef565b915061259c82612535565b604082019050919050565b600060208201905081810360008301526125c081612584565b9050919050565b7f4552433732313a20617070726f76652063616c6c6572206973206e6f7420746f60008201527f6b656e206f776e6572206e6f7220617070726f76656420666f7220616c6c0000602082015250565b6000612623603e83611eef565b915061262e826125c7565b604082019050919050565b6000602082019050818103600083015261265281612616565b9050919050565b7f4552433732313a2063616c6c6572206973206e6f7420746f6b656e206f776e6560008201527f72206e6f7220617070726f766564000000000000000000000000000000000000602082015250565b60006126b5602e83611eef565b91506126c082612659565b604082019050919050565b600060208201905081810360008301526126e4816126a8565b9050919050565b7f455243373231456e756d657261626c653a206f776e657220696e646578206f7560008201527f74206f6620626f756e6473000000000000000000000000000000000000000000602082015250565b6000612747602b83611eef565b9150612752826126eb565b604082019050919050565b600060208201905081810360008301526127768161273a565b9050919050565b7f455243373231456e756d657261626c653a20676c6f62616c20696e646578206f60008201527f7574206f6620626f756e64730000000000000000000000000000000000000000602082015250565b60006127d9602c83611eef565b91506127e48261277d565b604082019050919050565b60006020820190508181036000830152612808816127cc565b9050919050565b7f4e487b7100000000000000000000000000000000000000000000000000000000600052603260045260246000fd5b7f4552433732313a20696e76616c696420746f6b656e2049440000000000000000600082015250565b6000612874601883611eef565b915061287f8261283e565b602082019050919050565b600060208201905081810360008301526128a381612867565b9050919050565b7f4552433732313a2061646472657373207a65726f206973206e6f74206120766160008201527f6c6964206f776e65720000000000000000000000000000000000000000000000602082015250565b6000612906602983611eef565b9150612911826128aa565b604082019050919050565b60006020820190508181036000830152612935816128f9565b9050919050565b7f546865205f746f6b656e55726c206d7573742062652068617665000000000000600082015250565b6000612972601a83611eef565b915061297d8261293c565b602082019050919050565b600060208201905081810360008301526129a181612965565b9050919050565b7f4552433732313a207472616e736665722066726f6d20696e636f72726563742060008201527f6f776e6572000000000000000000000000000000000000000000000000000000602082015250565b6000612a04602583611eef565b9150612a0f826129a8565b604082019050919050565b60006020820190508181036000830152612a33816129f7565b9050919050565b7f4552433732313a207472616e7366657220746f20746865207a65726f2061646460008201527f7265737300000000000000000000000000000000000000000000000000000000602082015250565b6000612a96602483611eef565b9150612aa182612a3a565b604082019050919050565b60006020820190508181036000830152612ac581612a89565b9050919050565b7f4e487b7100000000000000000000000000000000000000000000000000000000600052601160045260246000fd5b6000612b0682611f9f565b9150612b1183611f9f565b925082821015612b2457612b23612acc565b5b828203905092915050565b6000612b3a82611f9f565b9150612b4583611f9f565b9250827fffffffffffffffffffffffffffffffffffffffffffffffffffffffffffffffff03821115612b7a57612b79612acc565b5b828201905092915050565b7f4552433732313a20617070726f766520746f2063616c6c657200000000000000600082015250565b6000612bbb601983611eef565b9150612bc682612b85565b602082019050919050565b60006020820190508181036000830152612bea81612bae565b9050919050565b7f4552433732313a207472616e7366657220746f206e6f6e20455243373231526560008201527f63656976657220696d706c656d656e7465720000000000000000000000000000602082015250565b6000612c4d603283611eef565b9150612c5882612bf1565b604082019050919050565b60006020820190508181036000830152612c7c81612c40565b9050919050565b600081905092915050565b6000612c9982611ee4565b612ca38185612c83565b9350612cb3818560208601611f00565b80840191505092915050565b6000612ccb8285612c8e565b9150612cd78284612c8e565b91508190509392505050565b7f4552433732313a206d696e7420746f20746865207a65726f2061646472657373600082015250565b6000612d19602083611eef565b9150612d2482612ce3565b602082019050919050565b60006020820190508181036000830152612d4881612d0c565b9050919050565b7f4552433732313a20746f6b656e20616c7265616479206d696e74656400000000600082015250565b6000612d85601c83611eef565b9150612d9082612d4f565b602082019050919050565b60006020820190508181036000830152612db481612d78565b9050919050565b7f45524337323155524953746f726167653a2055524920736574206f66206e6f6e60008201527f6578697374656e7420746f6b656e000000000000000000000000000000000000602082015250565b6000612e17602e83611eef565b9150612e2282612dbb565b604082019050919050565b60006020820190508181036000830152612e4681612e0a565b9050919050565b60008190508160005260206000209050919050565b60006020601f8301049050919050565b600082821b905092915050565b600060088302612eaf7fffffffffffffffffffffffffffffffffffffffffffffffffffffffffffffffff82612e72565b612eb98683612e72565b95508019841693508086168417925050509392505050565b6000819050919050565b6000612ef6612ef1612eec84611f9f565b612ed1565b611f9f565b9050919050565b6000819050919050565b612f1083612edb565b612f24612f1c82612efd565b848454612e7f565b825550505050565b600090565b612f39612f2c565b612f44818484612f07565b505050565b5b81811015612f6857612f5d600082612f31565b600181019050612f4a565b5050565b601f821115612fad57612f7e81612e4d565b612f8784612e62565b81016020851015612f96578190505b612faa612fa285612e62565b830182612f49565b50505b505050565b600082821c905092915050565b6000612fd060001984600802612fb2565b1980831691505092915050565b6000612fe98383612fbf565b9150826002028217905092915050565b61300282611ee4565b67ffffffffffffffff81111561301b5761301a6121ea565b5b6130258254612504565b613030828285612f6c565b600060209050601f8311600181146130635760008415613051578287015190505b61305b8582612fdd565b8655506130c3565b601f19841661307186612e4d565b60005b8281101561309957848901518255600182019150602085019450602081019050613074565b868310156130b657848901516130b2601f891682612fbf565b8355505b6001600288020188555050505b505050505050565b600081519050919050565b600082825260208201905092915050565b60006130f2826130cb565b6130fc81856130d6565b935061310c818560208601611f00565b61311581611f33565b840191505092915050565b60006080820190506131356000830187612034565b6131426020830186612034565b61314f60408301856120ca565b818103606083015261316181846130e7565b905095945050505050565b60008151905061317b81611e55565b92915050565b60006020828403121561319757613196611e1f565b5b60006131a58482850161316c565b91505092915050565b60006131b982611f9f565b91507fffffffffffffffffffffffffffffffffffffffffffffffffffffffffffffffff82036131eb576131ea612acc565b5b600182019050919050565b7f4e487b7100000000000000000000000000000000000000000000000000000000600052601260045260246000fd5b600061323082611f9f565b915061323b83611f9f565b92508261324b5761324a6131f6565b5b828204905092915050565b600061326182611f9f565b915061326c83611f9f565b92508261327c5761327b6131f6565b5b828206905092915050565b7f4e487b7100000000000000000000000000000000000000000000000000000000600052603160045260246000fdfea264697066735822122098aa0413d2042d2e49bf2ce3f364877a48361478c3b71aede3744295628559aa64736f6c634300080f0033",
  "immutableReferences": {},
  "source": "// contracts/GameItem.sol\n// SPDX-License-Identifier: MIT\npragma solidity ^0.8.0;\n\nimport \"../node_modules/@openzeppelin/contracts/token/ERC721/extensions/ERC721URIStorage.sol\";\nimport \"../node_modules/@openzeppelin/contracts/utils/Counters.sol\";\n\ncontract GameItem is ERC721URIStorage {\n    using Counters for Counters.Counter;\n    Counters.Counter private _tokenIds;\n\n    constructor() ERC721(\"GameItem\", \"ITM\") {}\n\n    function awardItem(address player, string memory tokenURI)\n        public\n        returns (uint256)\n    {\n        uint256 newItemId = _tokenIds.current();\n        _mint(player, newItemId);\n        _setTokenURI(newItemId, tokenURI);\n\n        _tokenIds.increment();\n        return newItemId;\n    }\n}\n   \npragma solidity ^0.8.0;\n\nimport \"../node_modules/@openzeppelin/contracts/token/ERC721/ERC721.sol\";\nimport \"../node_modules/@openzeppelin/contracts/token/ERC721/extensions/ERC721Enumerable.sol\";\nimport \"../node_modules/@openzeppelin/contracts/token/ERC721/extensions/ERC721URIStorage.sol\";\nimport \"../node_modules/@openzeppelin/contracts/utils/Counters.sol\";\n\n\ncontract TestNFT is ERC721,ERC721Enumerable, ERC721URIStorage {\n\n    using Counters for Counters.Counter;\n    Counters.Counter private _tokenId;\n\n    constructor() ERC721(\"The First NFT\",\"FFT\") {}\n\n    function mint(address _recipient, string memory _tokenUrl) public returns(uint _mintTokenId){\n        require(bytes(_tokenUrl).length > 0,\"The _tokenUrl must be have\");\n        _tokenId.increment();\n        uint newTokenId = _tokenId.current();\n        _mint(_recipient, newTokenId);\n        _setTokenURI(newTokenId, _tokenUrl);\n        return newTokenId;\n    }\n\n    function _beforeTokenTransfer(address from, address to, uint256 tokenId)\n        internal\n        override(ERC721, ERC721Enumerable)\n    {\n        super._beforeTokenTransfer(from, to, tokenId);\n    }\n\n    function _burn(uint256 tokenId) internal override(ERC721, ERC721URIStorage) {\n        super._burn(tokenId);\n    }\n\n    function tokenURI(uint256 tokenId)\n        public\n        view\n        override(ERC721, ERC721URIStorage)\n        returns (string memory)\n    {\n        return super.tokenURI(tokenId);\n    }\n\n    function supportsInterface(bytes4 interfaceId)\n        public\n        view\n        override(ERC721, ERC721Enumerable)\n        returns (bool)\n    {\n        return super.supportsInterface(interfaceId);\n    }\n}\n",
  "sourcePath": "/Users/lzl/work/smartcontract/ercs/contracts/ERC721.sol",
  "compiler": {
    "name": "solc",
    "version": "0.8.15+commit.e14f2714.Emscripten.clang"
  },
  "schemaVersion": "3.4.8",
  "updatedAt": "2022-08-14T11:09:17.516Z",
  "devdoc": {
    "kind": "dev",
    "methods": {
      "approve(address,uint256)": {
        "details": "See {IERC721-approve}."
      },
      "balanceOf(address)": {
        "details": "See {IERC721-balanceOf}."
      },
      "getApproved(uint256)": {
        "details": "See {IERC721-getApproved}."
      },
      "isApprovedForAll(address,address)": {
        "details": "See {IERC721-isApprovedForAll}."
      },
      "name()": {
        "details": "See {IERC721Metadata-name}."
      },
      "ownerOf(uint256)": {
        "details": "See {IERC721-ownerOf}."
      },
      "safeTransferFrom(address,address,uint256)": {
        "details": "See {IERC721-safeTransferFrom}."
      },
      "safeTransferFrom(address,address,uint256,bytes)": {
        "details": "See {IERC721-safeTransferFrom}."
      },
      "setApprovalForAll(address,bool)": {
        "details": "See {IERC721-setApprovalForAll}."
      },
      "symbol()": {
        "details": "See {IERC721Metadata-symbol}."
      },
      "tokenByIndex(uint256)": {
        "details": "See {IERC721Enumerable-tokenByIndex}."
      },
      "tokenOfOwnerByIndex(address,uint256)": {
        "details": "See {IERC721Enumerable-tokenOfOwnerByIndex}."
      },
      "totalSupply()": {
        "details": "See {IERC721Enumerable-totalSupply}."
      },
      "transferFrom(address,address,uint256)": {
        "details": "See {IERC721-transferFrom}."
      }
    },
    "version": 1
  },
  "userdoc": {
    "kind": "user",
    "methods": {},
    "version": 1
  }
}