{
  "contractName": "Voting",
  "abi": [
    {
      "inputs": [],
      "stateMutability": "nonpayable",
      "type": "constructor"
    },
    {
      "inputs": [
        {
          "internalType": "string",
          "name": "name",
          "type": "string"
        }
      ],
      "name": "addCandidate",
      "outputs": [],
      "stateMutability": "nonpayable",
      "type": "function"
    },
    {
      "inputs": [],
      "name": "getCandidates",
      "outputs": [
        {
          "internalType": "string[]",
          "name": "candidates",
          "type": "string[]"
        }
      ],
      "stateMutability": "view",
      "type": "function"
    },
    {
      "inputs": [
        {
          "internalType": "string",
          "name": "name",
          "type": "string"
        }
      ],
      "name": "vote",
      "outputs": [],
      "stateMutability": "nonpayable",
      "type": "function"
    },
    {
      "inputs": [
        {
          "internalType": "string",
          "name": "name",
          "type": "string"
        }
      ],
      "name": "getVotes",
      "outputs": [
        {
          "internalType": "uint256",
          "name": "",
          "type": "uint256"
        }
      ],
      "stateMutability": "view",
      "type": "function"
    },
    {
      "inputs": [],
      "name": "Winner",
      "outputs": [
        {
          "internalType": "string",
          "name": "",
          "type": "string"
        },
        {
          "internalType": "uint256",
          "name": "total",
          "type": "uint256"
        }
      ],
      "stateMutability": "view",
      "type": "function"
    }
  ],
  "bytecode": "0x608060405242600255600067ffffffffffffffff811115620000265762000025620001d4565b5b6040519080825280602002602001820160405280156200005b57816020015b6060815260200190600190039081620000455790505b506003908051906020019062000073929190620000e7565b503480156200008157600080fd5b5033600160006101000a81548173ffffffffffffffffffffffffffffffffffffffff021916908373ffffffffffffffffffffffffffffffffffffffff16021790555062093a8042620000d491906200023c565b60028190555060008081905550620005c1565b82805482825590600052602060002090810192821562000134579160200282015b8281111562000133578251829081620001229190620004da565b509160200191906001019062000108565b5b50905062000143919062000147565b5090565b5b808211156200016b57600081816200016191906200016f565b5060010162000148565b5090565b5080546200017d90620002d3565b6000825580601f10620001915750620001b2565b601f016020900490600052602060002090810190620001b19190620001b5565b5b50565b5b80821115620001d0576000816000905550600101620001b6565b5090565b7f4e487b7100000000000000000000000000000000000000000000000000000000600052604160045260246000fd5b6000819050919050565b7f4e487b7100000000000000000000000000000000000000000000000000000000600052601160045260246000fd5b6000620002498262000203565b9150620002568362000203565b9250827fffffffffffffffffffffffffffffffffffffffffffffffffffffffffffffffff038211156200028e576200028d6200020d565b5b828201905092915050565b600081519050919050565b7f4e487b7100000000000000000000000000000000000000000000000000000000600052602260045260246000fd5b60006002820490506001821680620002ec57607f821691505b602082108103620003025762000301620002a4565b5b50919050565b60008190508160005260206000209050919050565b60006020601f8301049050919050565b600082821b905092915050565b6000600883026200036c7fffffffffffffffffffffffffffffffffffffffffffffffffffffffffffffffff826200032d565b6200037886836200032d565b95508019841693508086168417925050509392505050565b6000819050919050565b6000620003bb620003b5620003af8462000203565b62000390565b62000203565b9050919050565b6000819050919050565b620003d7836200039a565b620003ef620003e682620003c2565b8484546200033a565b825550505050565b600090565b62000406620003f7565b62000413818484620003cc565b505050565b5b818110156200043b576200042f600082620003fc565b60018101905062000419565b5050565b601f8211156200048a57620004548162000308565b6200045f846200031d565b810160208510156200046f578190505b620004876200047e856200031d565b83018262000418565b50505b505050565b600082821c905092915050565b6000620004af600019846008026200048f565b1980831691505092915050565b6000620004ca83836200049c565b9150826002028217905092915050565b620004e58262000299565b67ffffffffffffffff811115620005015762000500620001d4565b5b6200050d8254620002d3565b6200051a8282856200043f565b600060209050601f8311600181146200055257600084156200053d578287015190505b620005498582620004bc565b865550620005b9565b601f198416620005628662000308565b60005b828110156200058c5784890151825560018201915060208501945060208101905062000565565b86831015620005ac5784890151620005a8601f8916826200049c565b8355505b6001600288020188555050505b505050505050565b61124b80620005d16000396000f3fe608060405234801561001057600080fd5b50600436106100575760003560e01c806306a49fce1461005c578063462e91ec1461007a578063805265e514610096578063b2b98ed2146100c6578063fc36e15b146100e5575b600080fd5b610064610101565b604051610071919061095e565b60405180910390f35b610094600480360381019061008f9190610ac9565b6101da565b005b6100b060048036038101906100ab9190610ac9565b6102fa565b6040516100bd9190610b2b565b60405180910390f35b6100ce610322565b6040516100dc929190610b90565b60405180910390f35b6100ff60048036038101906100fa9190610ac9565b6104db565b005b60606003805480602002602001604051908101604052809291908181526020016000905b828210156101d157838290600052602060002001805461014490610bef565b80601f016020809104026020016040519081016040528092919081815260200182805461017090610bef565b80156101bd5780601f10610192576101008083540402835291602001916101bd565b820191906000526020600020905b8154815290600101906020018083116101a057829003601f168201915b505050505081526020019060010190610125565b50505050905090565b6002544211156101e957600080fd5b3373ffffffffffffffffffffffffffffffffffffffff16600160009054906101000a900473ffffffffffffffffffffffffffffffffffffffff1673ffffffffffffffffffffffffffffffffffffffff1614610279576040517f08c379a000000000000000000000000000000000000000000000000000000000815260040161027090610c6c565b60405180910390fd5b61028281610650565b156102c2576040517f08c379a00000000000000000000000000000000000000000000000000000000081526004016102b990610cd8565b60405180910390fd5b6003819080600181540180825580915050600190039060005260206000200160009091909190915090816102f69190610ea4565b5050565b600060048260405161030c9190610fb2565b9081526020016040518091039020549050919050565b60606000806003805490501161033757600080fd5b6000806004600360008154811061035157610350610fc9565b5b90600052602060002001604051610368919061107b565b90815260200160405180910390205490506000600190505b600380549050811015610425576004600382815481106103a3576103a2610fc9565b5b906000526020600020016040516103ba919061107b565b908152602001604051809103902054821015610412576004600382815481106103e6576103e5610fc9565b5b906000526020600020016040516103fd919061107b565b90815260200160405180910390205491508092505b808061041d906110c1565b915050610380565b506003828154811061043a57610439610fc9565b5b906000526020600020018181805461045190610bef565b80601f016020809104026020016040519081016040528092919081815260200182805461047d90610bef565b80156104ca5780601f1061049f576101008083540402835291602001916104ca565b820191906000526020600020905b8154815290600101906020018083116104ad57829003601f168201915b505050505091509350935050509091565b33600560003373ffffffffffffffffffffffffffffffffffffffff1673ffffffffffffffffffffffffffffffffffffffff16815260200190815260200160002060009054906101000a900460ff1615610569576040517f08c379a000000000000000000000000000000000000000000000000000000000815260040161056090611155565b60405180910390fd5b60025442111561057857600080fd5b61058182610650565b6105c0576040517f08c379a00000000000000000000000000000000000000000000000000000000081526004016105b7906111c1565b60405180910390fd5b6004826040516105d09190610fb2565b908152602001604051809103902060008154809291906105ef906110c1565b91905055506001600560003373ffffffffffffffffffffffffffffffffffffffff1673ffffffffffffffffffffffffffffffffffffffff16815260200190815260200160002060006101000a81548160ff0219169083151502179055505050565b6000806000905060005b6003805490508110156107f95760006003828154811061067d5761067c610fc9565b5b90600052602060002001805461069290610bef565b80601f01602080910402602001604051908101604052809291908181526020018280546106be90610bef565b801561070b5780601f106106e05761010080835404028352916020019161070b565b820191906000526020600020905b8154815290600101906020018083116106ee57829003601f168201915b50505050509050600085905080518251036107e45760005b82518110156107e25781818151811061073f5761073e610fc9565b5b602001015160f81c60f81b7effffffffffffffffffffffffffffffffffffffffffffffffffffffffffffff191683828151811061077f5761077e610fc9565b5b602001015160f81c60f81b7effffffffffffffffffffffffffffffffffffffffffffffffffffffffffffff19161480156107c55750600183516107c291906111e1565b81145b156107cf57600194505b80806107da906110c1565b915050610723565b505b505080806107f1906110c1565b91505061065a565b5080915050919050565b600081519050919050565b600082825260208201905092915050565b6000819050602082019050919050565b600081519050919050565b600082825260208201905092915050565b60005b8381101561086957808201518184015260208101905061084e565b83811115610878576000848401525b50505050565b6000601f19601f8301169050919050565b600061089a8261082f565b6108a4818561083a565b93506108b481856020860161084b565b6108bd8161087e565b840191505092915050565b60006108d4838361088f565b905092915050565b6000602082019050919050565b60006108f482610803565b6108fe818561080e565b9350836020820285016109108561081f565b8060005b8581101561094c578484038952815161092d85826108c8565b9450610938836108dc565b925060208a01995050600181019050610914565b50829750879550505050505092915050565b6000602082019050818103600083015261097881846108e9565b905092915050565b6000604051905090565b600080fd5b600080fd5b600080fd5b600080fd5b7f4e487b7100000000000000000000000000000000000000000000000000000000600052604160045260246000fd5b6109d68261087e565b810181811067ffffffffffffffff821117156109f5576109f461099e565b5b80604052505050565b6000610a08610980565b9050610a1482826109cd565b919050565b600067ffffffffffffffff821115610a3457610a3361099e565b5b610a3d8261087e565b9050602081019050919050565b82818337600083830152505050565b6000610a6c610a6784610a19565b6109fe565b905082815260208101848484011115610a8857610a87610999565b5b610a93848285610a4a565b509392505050565b600082601f830112610ab057610aaf610994565b5b8135610ac0848260208601610a59565b91505092915050565b600060208284031215610adf57610ade61098a565b5b600082013567ffffffffffffffff811115610afd57610afc61098f565b5b610b0984828501610a9b565b91505092915050565b6000819050919050565b610b2581610b12565b82525050565b6000602082019050610b406000830184610b1c565b92915050565b600082825260208201905092915050565b6000610b628261082f565b610b6c8185610b46565b9350610b7c81856020860161084b565b610b858161087e565b840191505092915050565b60006040820190508181036000830152610baa8185610b57565b9050610bb96020830184610b1c565b9392505050565b7f4e487b7100000000000000000000000000000000000000000000000000000000600052602260045260246000fd5b60006002820490506001821680610c0757607f821691505b602082108103610c1a57610c19610bc0565b5b50919050565b7f4f6e6c79206d616e616765722063616e206164642063616e6469646174652100600082015250565b6000610c56601f83610b46565b9150610c6182610c20565b602082019050919050565b60006020820190508181036000830152610c8581610c49565b9050919050565b7f73697374657220697320616c7265616479206578697374210000000000000000600082015250565b6000610cc2601883610b46565b9150610ccd82610c8c565b602082019050919050565b60006020820190508181036000830152610cf181610cb5565b9050919050565b60008190508160005260206000209050919050565b60006020601f8301049050919050565b600082821b905092915050565b600060088302610d5a7fffffffffffffffffffffffffffffffffffffffffffffffffffffffffffffffff82610d1d565b610d648683610d1d565b95508019841693508086168417925050509392505050565b6000819050919050565b6000610da1610d9c610d9784610b12565b610d7c565b610b12565b9050919050565b6000819050919050565b610dbb83610d86565b610dcf610dc782610da8565b848454610d2a565b825550505050565b600090565b610de4610dd7565b610def818484610db2565b505050565b5b81811015610e1357610e08600082610ddc565b600181019050610df5565b5050565b601f821115610e5857610e2981610cf8565b610e3284610d0d565b81016020851015610e41578190505b610e55610e4d85610d0d565b830182610df4565b50505b505050565b600082821c905092915050565b6000610e7b60001984600802610e5d565b1980831691505092915050565b6000610e948383610e6a565b9150826002028217905092915050565b610ead8261082f565b67ffffffffffffffff811115610ec657610ec561099e565b5b610ed08254610bef565b610edb828285610e17565b600060209050601f831160018114610f0e5760008415610efc578287015190505b610f068582610e88565b865550610f6e565b601f198416610f1c86610cf8565b60005b82811015610f4457848901518255600182019150602085019450602081019050610f1f565b86831015610f615784890151610f5d601f891682610e6a565b8355505b6001600288020188555050505b505050505050565b600081905092915050565b6000610f8c8261082f565b610f968185610f76565b9350610fa681856020860161084b565b80840191505092915050565b6000610fbe8284610f81565b915081905092915050565b7f4e487b7100000000000000000000000000000000000000000000000000000000600052603260045260246000fd5b6000815461100581610bef565b61100f8186610f76565b9450600182166000811461102a576001811461103f57611072565b60ff1983168652811515820286019350611072565b61104885610cf8565b60005b8381101561106a5781548189015260018201915060208101905061104b565b838801955050505b50505092915050565b60006110878284610ff8565b915081905092915050565b7f4e487b7100000000000000000000000000000000000000000000000000000000600052601160045260246000fd5b60006110cc82610b12565b91507fffffffffffffffffffffffffffffffffffffffffffffffffffffffffffffffff82036110fe576110fd611092565b5b600182019050919050565b7f416c726561647920766f74656421000000000000000000000000000000000000600082015250565b600061113f600e83610b46565b915061114a82611109565b602082019050919050565b6000602082019050818103600083015261116e81611132565b9050919050565b7f736973746572206973206e6f7420657869737421000000000000000000000000600082015250565b60006111ab601483610b46565b91506111b682611175565b602082019050919050565b600060208201905081810360008301526111da8161119e565b9050919050565b60006111ec82610b12565b91506111f783610b12565b92508282101561120a57611209611092565b5b82820390509291505056fea26469706673582212208fb2b33d45ace89a18b11e8ed17e3ab148f084ab3507108e30f655264834b1b064736f6c634300080f0033",
  "immutableReferences": {},
  "source": "//SPDX-License-Identifier: MIT\n\npragma solidity >0.8.0;\n\ncontract Voting{\n    uint _candidateId;\n    address _manager;\n    uint _deadline = block.timestamp;\n    string[] names = new string[](0); \n    mapping(string => uint) CandidateInfo;\n    mapping(address => bool) alreadyVoted;\n\n    constructor (){\n        _manager = msg.sender;\n        _deadline = block.timestamp + 1 weeks;\n        _candidateId = 0;\n    }\n\n    function addCandidate(string memory name)public{\n        require(block.timestamp <= _deadline);\n        require(_manager == msg.sender,\"Only manager can add candidate!\");\n        require(!candidateExist(name),\"sister is already exist!\");\n        names.push(name);\n    }\n\n    function getCandidates() public view returns(string[] memory candidates){\n        candidates = names;\n    }\n\n    function candidateExist(string memory _name)internal view returns(bool){\n        bool exist = false;\n        for (uint i = 0;i < names.length;i++){\n            bytes memory aa = bytes(names[i]);\n            bytes memory bb = bytes(_name);\n        \n            if (aa.length == bb.length){\n                for (uint j = 0;j< aa.length;j++){\n                    if (aa[j] == bb[j] && j == aa.length-1)\n                        exist = true;\n                }\n            }\n        }\n        return exist;\n    }\n\n    modifier noVoted(address _addr) {\n        require(!alreadyVoted[msg.sender],\"Already voted!\");\n        _;\n    }\n\n\n    function vote(string memory name)public noVoted(msg.sender){\n        require(block.timestamp <= _deadline);\n        require(candidateExist(name),\"sister is not exist!\");\n        CandidateInfo[name]++;\n        alreadyVoted[msg.sender] = true;\n    }\n\n    function getVotes(string memory name) public view returns(uint){\n        return CandidateInfo[name];\n    }\n\n    function Winner()public view returns(string memory,uint total){\n        require(names.length >0);\n        //require(block.timestamp > _deadline,\"The voting is still open,can't get winner!\");\n        uint winnerId = 0;\n        uint max = CandidateInfo[names[0]];\n        for(uint i = 1;i < names.length;i++){\n            if (max < CandidateInfo[names[i]]){\n                max = CandidateInfo[names[i]];\n                winnerId = i;\n            }     \n        }\n        return (names[winnerId],max);\n    }\n}",
  "sourcePath": "/Users/lzl/work/smartcontract/voting/contracts/Voting.sol",
  "compiler": {
    "name": "solc",
    "version": "0.8.15+commit.e14f2714.Emscripten.clang"
  },
  "schemaVersion": "3.4.8",
  "updatedAt": "2022-08-13T12:35:50.398Z",
  "devdoc": {
    "kind": "dev",
    "methods": {},
    "version": 1
  },
  "userdoc": {
    "kind": "user",
    "methods": {},
    "version": 1
  }
}